:400000000080002011000000AD030000AD03000008B5044B1A6803F53F5302331A6000F0DFF900BFFA46004010B5054C237833B9044B13B10448AFF300800123237010BD3F
:400040008881FF1F00000000AC130000084B10B51BB108480849AFF300800848036803B910BD074B002BFBD0BDE81040184700BF00000000AC1300008C81FF1F0881FF1FC3
:400080000000000010B50D4C0420A1210246234600F064F92378622B08D06D2B0AD0612B0BD1074B01221A705A7010BD0022044B1A7010BD0022024B5A7010BDA481FF1FBD
:4000C0000C81FF1F08B562B600F0A6FC00F0B2FC00F000FD00F046FB08BD00BF10B5FFF7F1FF00240C4B5A789B789A420AD000F055F803E0FFF7C6FF00F050F8064B1B78F6
:40010000002BF7D1642000F085FB01340348214600F034F9E6E700BFA481FF1FB0130000064B1A78064B1B789A4201D3002000E020200344981AC0B2704700BFA581FF1F66
:40014000A681FF1F044A13780449C85C013303F01F031370704700BFA581FF1FCC81FF1F10B483B0002201A80CE00A490B780A4CE35C03700B78013303F01F030B700132F9
:40018000D2B20130032AF0D9019803B05DF8044B704700BFA581FF1FCC81FF1F08B500221F4B1A7000221F4B1A601F4B1A781F4B1B789A4233D00133DBB21C4A1370013BE8
:4001C0001B4AD25C052A12D10021194AD15405E00A2000F035FB174800F0D0F8FFF7A0FF0028F5D0FFF7AEFF0D4B187008BD062A15D100210E4AD15405E00A2000F020FBD3
:400200000D4800F0BBF8FFF78BFF0428F5D9FFF799FF034B1870FFF7A3FF024B186008BDA481FF1FA881FF1FA681FF1FA581FF1FCC81FF1FC01300000814000008B5A520D7
:4002400000F0BCFAA52000F0B9FAA52000F0B6FAA52000F0B3FA08BD10B50D4C207800F0ADFA607800F0AAFAA07800F0A7FAE07800F0A4FA207900F0A1FA607900F09EFA17
:40028000A07900F09BFAE07900F098FA10BD00BFAC81FF1F38B5084B9B68002406E05D1C187800F08BFA0134A4B22B46024A92899442F4D338BD00BFAC81FF1F08B5B62091
:4002C00000F07CFAB62000F079FAB62000F076FAB62000F073FA08BD08B5FFF7EFFF08BD30B482B0094B187059709A70140ADC700124074D2C601C7100245C719C71DC71BF
:400300009873D9739A8102B030BC7047AC81FF1FEC81FF1F08B5012000F092FAFFF78EFFFFF79AFF044B9B7B042B01D0FFF7B2FFFFF7D2FF08BD00BFAC81FF1F054A11783A
:40034000054B19745178597491789974D278DA74704700BFEC81FF1FAC81FF1F10B51C46FFF7BEFF044B9C60FFF7E8FFFFF7D2FF012000F04FFA10BDAC81FF1F0FB400B55D
:40038000C3B044AB53F8042B419301A84FF4807100F016FC82B201200B2101ABFFF7DEFF43B05DF804EB04B0704700BFFEE700BF08B5094B1A681044084BC31A802B02DC09
:4003C000054B186005E000F093FB0C2303604FF0FF32104608BD00BF1081FF1F0082FF1F08B5104E104D16E029686B68AC68002204E051F8040B43F8040B0432A242F8D136
:40040000E868002203E0002143F8041B04328242F9D11035013E002EE6D100F06FFBFFF75DFEFEE701000000E414000008B5124A124B1A60124A136843F40073136000232F
:400440000AE0032B03D80F4A52F8231000E00E490E4A42F8231001332F2BF2D90C4B1A780C4B1A70094A0C4B1A6000F0D7F800220A4B1A6008BD00BF0004FA050CED00E060
:4004800014ED00E000000000AD0300000080FF1FBC7600400481FF1F08ED00E00081FF1FFEE700BFF0B40022174611E050F82760F3B226F0FF0608E001EB420511F81240C7
:4004C0006D78A5550132013BDBB2002BF4D10137182FEBD9F0BC704708B50A46002100F03EFB08BD38B50122264B1A801823264A13700C2102321180023213700222234BEB
:400500001A7008224FF040231A70032103F5007319701F4B1B78DBB21E490B701E4B1A8041F25122023B1A80002419250CE01B4B1B7803F0010343EA440404F003044FF4E6
:40054000F07000F055F9013D0DB1032CEFD115B90320FFF7A5FF124B4FF480721A8007221A7000220F490A704820023108701A700222033B1A700C4A137843F0030313706E
:4005800038BD00BF80400040824000400043004008010049A146004022420040254200400440004006400040A2430040F8B5134B1B78DBB2124E3478E4B2124F3D78EDB28D
:4005C00003F00701104A11701B090132137044F00303337045F003033B70402392321370023213702022094B1A700A2000F028F93D7034704422064B1A70F8BDCF0100496C
:40060000F8460040F94600406E580040235B00407658004008B500F097FA08BD70B572B62A4A137843F00403137000240CE0284963001A1952000A4423445B00C85891882D
:40064000FFF74AFF0134E4B2072CF0D94FF090402049FFF727FF204A137843F0020313701032137843F0020313701C4C237843F040032370A2F58632513A137843F01003F1
:400680001370174817490822FFF7C4FF164817490822FFF7BFFF164816490A22FFF7BAFF154A137843F008031370144E01253570FFF718FF81233370114B1D70FFF776FF61
:4006C000104821460E22FFF7A5FF70BDE8460040581400006400004803500140A0430040025100406C040048C251004074040048105100407C040048224300400048004013
:4007000004000840B04300407222074B1A702022013B1A700622A3331A70472210331A7000224E331A7070478964004010B500F067F804460A4A137843F020031370013AA2
:40074000137843F01003137002F20112137843F01003137000F03EF8204600F055F810BD9964004008B5054B1B7823B9FFF7CCFF0122024B1A70FFF7D9FF08BDC081FF1FCE
:40078000024B187800F07F00704700BF68640040084B1B78DBB213F0200F06D0064A1078C0B213F01E0F02D17047002070470020704700BF6864004049650040034B1B78A4
:4007C00013F0040FFAD1024B18707047696500404A650040054A137843F0020313701032137843F002031370704700BFA24300400230800803D000BF01380046FCD1704788
:40080000EFF3108072B6704780F31088704700BF01BE704710B5044605E0084B1868FFF7E7FFA4F50044B4F5004FF6D8034B586800FB04F0FFF7DCFF10BD00BF1481FF1F1D
:4008400008B5034B1B7A03FB00F0FFF7D1FF08BD1481FF1F70B504460E46074B1D681F2802D90020FFF7D4FF04F01F04103455F8240045F8246070BD08ED00E038B5044641
:400880000D46072902D90020FFF7C2FF1F2C02D90020FFF7BDFF04F01F0000F1604000F564406D01EDB2057038BD00BF08B50A280FD00C2802D0082806D102E04FF48052C6
:4008C00009E04FF4807206E00020FFF7A1FF002201E04FF480620021094B198042F2107303FB02F303F6C413064A82FB0302DB17C3EBE223044A1360044B198008BD00BFEA
:40090000F681FF1FAD8BDB68F081FF1FF481FF1F10B5FFF775FF04461E4A137843F0010313701032137843F001031370193A137843F0010313701032137843F001031370B9
:4009400002F5AA521132137843F0030313700422114B1A70013B1A7802F0BF021A701A7842F003021A700822053B1A700222A3F597530C3B1A70094A137843F00803137086
:400980000A20FFF75DFF0122054B1A602046FFF73BFF10BDAB43004006590040275B004080E200E010B504460A280DD00C2802D0082804D101E0C42207E0442205E0002058
:4009C000FFF726FFC42200E08422034B1A702046FFF76CFF10BD00BF0259004008B5102000F032F800200721FFF748FF00200749FFF730FF064A137843F0060313700C20C3
:400A0000FFF7D0FF0022034B1A8008BD450A000001590040F881FF1F08B5054B1B7823B9FFF7DCFF0122024B1A70FFF771FF08BDC281FF1F024A137843F001031370704787
:400A400000590040704700BF034B1A7800F0F80010431870704700BF8240004038B50A20FFF7EEFEFFF78CFE10F0200F12D00A4C2578FFF78DFE094B585525780120A021CE
:400A800004222B44FFF76AFC2378013303F01F032370E4E738BD00BFA681FF1FCC81FF1F014B1B685864704708ED00E04001C0B2014B1870704700BF01E400E00222014B56
:400AC0001A60704700E100E00222014B1A60704780E100E008B5FFF7F7FF0448FFF7E0FF0720FFF7E3FFFFF7E9FF08BD5D0A0000014B1868704700BF8481FF1F0E4B70B56C
:400B00001E460E4C0025E41AA410A54204D056F8253098470135F8E700F0D2FC084B094C1E46E41AA4100025A54204D056F8253098470135F8E770BDCC140000CC140000EE
:400B4000CC140000D414000010B5431E0A44914204D011F8014B03F8014FF8E710BD03460244934202D003F8011BFAE7704730B5141E9BB0054604DA8B2303604FF0FF3057
:400B80001CE04FF40272ADF80C200CBF224604F1FF32029205924FF6FF7200910491ADF80E2069461A461E9B00F074F8431CBCBF8B232B6014B1009B00221A701BB030BD83
:400BC00073B506460D4614460093044B314618682A462346FFF7CBFF02B070BD8481FF1F2DE9F0478E688246B3420C469046994640D38A8912F4906F3AD025680969022300
:400C00006F1A656905EB450595FBF3F57B1C4B449D4238BF1D4653050FD5294600F030FB064698B121693A46FFF78EFFA38923F4906343F08003A38113E02A4600F076FB90
:400C4000064670B95046216900F0D6FA0C23CAF80030A3894FF0FF3043F04003A381BDE8F08726613E4426604E466561ED1BA560B14500D24E4632462068414600F0A0FA4B
:400C8000A36800209B1BA36023681E442660BDE8F08700002DE9F0439DB003938B8906461C060D4690460CD50B6953B9402100F0E7FA2860286110B90C233360CCE04023AC
:400CC0006B610023099320238DF8293030238DF82A3043461C4613F8012B1AB9B4EB08090FD002E0252AF5D1F8E73046294642464B46FFF775FF013000F0A980099B4B44D7
:400D000009932378002B00F0A28000234FF0FF3204930793059206938DF853301A9304F101084446DFF8489121784846052200F039FA08F10108049B30B1C9EB0000012294
:400D4000824013430493ECE7D80644BF20228DF85320190744BF2B228DF8532022782A2A02D0079923460EE0039A0134111D12680391002ABBBF524243F002030792079207
:400D8000B8BF04930AE01C4622780133303A092A03D80A2000FB0121F5E7079123782E2B1AD163782A2B0AD1039B02341A1D1B680392002BB8BF4FF0FF3305930CE0611CB7
:400DC00000220C4623780131303B092B03D80A2000FB0232F5E70592DFF8988021784046032200F0DFF938B1049AC8EB00004023834013430493013421781A48062204F1D7
:400E000001088DF8281000F0CDF988B1164B33B9039B073323F007030833039313E003AB0093304604A92A46104BAFF3008007E003AB0093304604A92A460C4B00F092F81A
:400E4000421C074603D0099B3B44099341E7AB895B0601D4099801E04FF0FF301DB0BDE8F08300BF9414000000000000E10B00008A140000901400002DE9F84391461F46AC
:400E80008A680B6906469342B8BF1346C9F8003091F843200C46DDF8208012B10133C9F800302368990642BFD9F800300233C9F80030256815F006051CD094F843302268EB
:400EC000003318BF012392061FD5E118302081F843005A1C94F845102244023382F8431013E03046394604F119020123C047013007D00135E368D9F800209B1A9D42F0DB78
:400F0000DBE74FF0FF30BDE8F8833046394604F14302C0470130F4D02268D9F80050E36802F00602042A08BF5D1B2269A3680CBF25EAE57500259342C4BF9B1AED184FF099
:400F40000009A9450ADA3046394604F11A020123C0470130D5D009F10109F2E70020BDE8F88300002DE9FF410C461746227E98466E2A06460A9B01F1430100F0B08012D826
:400F8000632A23D00AD8002A00F0BD80582A40F0CC8084F84520DFF804E257E0642A1ED0692A1CD0C1E0732A00F0B18009D86F2A2ED0702A40F0B980226842F02002226070
:400FC0003FE0752A24D0782A3BD0AEE01A6804F14205111D1960136884F84230A9E020681A6810F0800F02D0101D186008E010F0400F02F10400186002D0B2F9003000E06A
:401000001368002B3EDA2D225B4284F8432039E020681A6810F0800F02D0101D186007E010F0400F02F10400186001D0138800E01368227EDFF864E16F2A0CBF08220A221C
:401040001CE07822DFF858E184F845202268186812F0800F00F104051D6003D1550601D5038800E00368D00744BF42F0200222601BB9226822F0200222601022002084F86A
:40108000430002E0DFF814E10A226568002DA8BF2068A560A4BF20F00400206003B965B10D46B3FBF2F002FB10331EF8033005F8013D03460028F4D100E00D46082A0BD13E
:4010C0002368DA0708D5236962689A42DEBF302305F8013C05F1FF35491B21612EE025681A6815F0800F606903D0151D1D60136808E015F0400F02F104051D60136801D0C3
:40110000188000E01860002323610D4616E01A68111D1960156800212846626800F042F808B1401B6060636804E004F1420584F8422001232361002384F84330CDF800800A
:401140003046214603AA3B46FFF796FE013002D14FF0FF301FE0304639462A462369C0470130F5D023689B0705D4E068039B9842B8BF18460FE00025E368039A9B1A9D4250
:40118000F3DA3046394604F119020123C0470130DED00135F0E704B0BDE8F0819B140000AC14000010B5C9B202449042034605D01C7801308C42F8D1184610BD002010BD23
:4011C000814210B501EB020301D3421E0BE09842FBD28118D21AD34204D013F8014D01F8014DF8E710BD994204D011F8014B02F8014FF8E710BD000030B500293CD051F899
:40120000042C0B1F1D49002AB8BF9B180A680C4612B95A600B6030BD93420DD219685818904201BF5A5852181A60426823605A6030BD994203D80A4651680029F9D114682A
:4012400015199D420AD11B682344D0188842136012D10868034413604B680CE002D90C23036030BD1C681819884201BF08684968001918605960536030BD00BFC881FF1F01
:4012800070B5CC1C24F0030408340C2C38BF0C24002C064603DA0C233360002070BD8C42F9D3204A136810461946A1B10A68121B0ED40B2A03D90A608B188C501FE08B423A
:4012C0000BBF5A684A6802605A6018BF0B4616E00B464968E9E7144D2B681BB9304600F04BF828603046214600F046F8421C0346D1D0C51C25F0030585420AD11C6003F148
:401300000B001A1D20F00700821A0AD05142995070BD3046E91A00F02FF80130BBD02B46ECE770BDC881FF1FC481FF1FF8B5074615460E4621B91146BDE8F840FFF7A0BFA2
:401340001AB9FFF759FF2846F8BD00F025F8A8420ED238462946FFF793FF044650B131462A46FFF7F1FB38463146FFF745FF01E03046F8BD2046F8BD38B5064C00230546C6
:4013800008462360FFF714F8431C02D1236803B12B6038BDFC81FF1F51F8040C0028BEBF091851F8043CC018043870470000000048656C6C6F20576F726C643A2025690057
:4013C0007061727365527842756666657228292052585F4E4558545F49535F434841523A2077616974696E6720666F72205F6765744279746573417661696C61626C65285A
:4014000029203C20310000007061727365527842756666657228292052585F4E4558545F49535F464C41475F414E445F464C4F41543A2077616974696E6720666F72205F30
:401440006765744279746573417661696C61626C652829203C203500C84900401900205100405000F0510040100000000140001000140140000800400140000A004C0140E0
:4014800000020050014020004300232D302B2000686C4C00656667454647003031323334353637383941424344454600303132333435363738396162636465660000000043
:4014C000F8B500BFF8BC08BC9E4670474D0000002D040000F8B500BFF8BC08BC9E46704729000000F81400000881FF1F80000000780000000000000000000000010100009A
:401500000082FF1F0000E02EC05D00001800000000366E01000000000000000000000000000000000000000000000000000000000000000088140000000000000000000087
:40154000000000000000000000000000000000000000000000000000000000000000000000000000000000000000000000000000000000002481FF1F0000000000000000A8
:40158000000000000000000000000000000000000000000000000000000000000000000000000000000000000000000000000000000000000000000000000000000000002B
:4015C00000000000000000000000000000000000000000000000000000000000000000000000000000000000000000000000000000000000000000000000000000000000EB
:4016000000000000000000000000000000000000000000000000000000000000000000000000000000000000000000000000000000000000000000000000000000000000AA
:40164000000000000000000000000000000000000000000000000000000000000000000000000000000000000000000000000000000000000000000000000000000000006A
:020000040003F7
:0200000480007A
:4000000004520040015B00400264004001650040020701403C0801402E09014004150140011701405118014045190140651A0140481B01400340014002410140044201400C
:4000400006430140024601400347014004480140114901400F4C0140094D01400450014002510140088009800C406002278488388972890FE602EE040002120314011A037E
:400080001C03240328032E0336035418560458045B045C015D105F01811084018518880189088E028FE3900C92029304940295E7960C9718980C99C09A029C0E9DFFA0083A
:4000C000A144A404A53CA7C2A80CA9DCAB21AC01AD80B138B201B3D8B40EB51FBA20BB28D602D713D804D904DB04DC11DD10DF01011402020680080109880A040C010D80DB
:400100000E241082110113181588171019101A141E02210E230429102A882B80318832203312382839813E083F045A025E02674968026934709473188740C017C2FFC4EF90
:40014000CA0FCC0FCE0FD681D8B0EE04E008E401E810EA05E220060209020A010E02120115021C01240125042B022D013202330134013706382039803A803E043F045804C3
:4001800059045C115F01800882168502860189048F0493019504981099029A0A9D02A301A418A704A818AB04AD02B004B102B304B418B603B701BE40BF45C023C105C2041F
:4001C000C401C5C0C7E0C822C9FFCAFFCBFFCC62CDA0CEF0CF41D00CD401D804D904DA04DB04DC01DD11DF01E640E702E910EA30EB10ED10EE10EF12000A0220040405102C
:4002000006010A040C010D801114150818011A041B021C041D801E021F0420202201230125402710280129222B202D202E402F2031923304370439483A483B103F1040017A
:400240004102421849024A01520159855A208F10913C921096029709980199109E80A102A580A630A782B001B304B540B612C0ECC292C426CA7FCC4FCE2ED00FD208D60F26
:40028000E220001005700603080C09700A030D030F0C1140131015031608170419101B601E0C1F08212023102401260E27052801290A2A062B042D032F043210330F340F51
:4002C00035703A203B083E044062410345EB460C480749FF4AFF4BFF4EF04F44500C580459045A045C115D015F0166C06A406B0284148702880C89188A118B059203941082
:400300009518960C97039810A009A210A306A709A81CA916AA02AB01B01FB318B507B908BB20BF04C002C504C9FFCA07CBFFCC40CD20CEF0CF05D008D804D904DA04DC1113
:40034000DD01DF01E040E1A8E240E32001200284032005080704084009400A200E400F1413181440160419241E40200821242310272C29202A402BA02C402D202F203040C6
:4003800031203305370839243B803F144324472049094A804B104E104F045240572089048B409124964097109B019D259E409F04A140A380A404A720B011B180B294B381C3
:4003C000B540B610C06EC275C456CAEFCC4FCE6ED026D204E008E401E810EA0533203620CC30A620A7203E10A620A720CE2086209610A620AB20E640EE201B04C6084402F4
:40040000AB04D00424088A019610C820122016407B027E01822086409202A302AA10AB02B404C430DC80DE20E010E480EAA008401328150266017B107F4089018E019C0282
:40044000C202C40ED801DE03E204E402831087409780A710AB28B040B402E808EA0100020C0210021C02000F03C0000000000000000010000000030003000000800040807C
:40048000800080000000000000000000000000000000000000000000000000000000000000000000000000000000000000000000000000000000000000000000000000003C
:4004C00000000000000000000000000000000000000000000000000000000000000000000000000000000000000000000000000000000000000000000000000000000000FC
:4005000000000000000000000000000000000000000000000000000000000000000000000000000000000000000000000000000000000000000000000000000000000000BB
:40054000000000000000000000000000000000000000000000000000000000000000000000000000000000000000000000000000000000000000000000000000000000007B
:40058000000000000000000000000000000000000000000000000000000000000000000000000000000000000000000000000000000000000000000000000000000000003B
:0200000490006A
:0400000000004005B7
:0200000490105A
:04000000BC90ACAF55
:0200000490303A
:020000002B8251
:0200000490402A
:4000000000000000000000000000000000000000000000000000000000000000000000000000000000000000000000000000000000000000000000000000000000000000C0
:400040000000000000000000000000000000000000000000000000000000000000000000000000000000000000000000000000000000000000000000000000000000000080
:400080000000000000000000000000000000000000000000000000000000000000000000000000000000000000000000000000000000000000000000000000000000000040
:4000C0000000000000000000000000000000000000000000000000000000000000000000000000000000000000000000000000000000000000000000000000000000000000
:0200000490501A
:0C00000000012E12306900012E1B5BEB8A
:00000001FF